:020000040800F2
:100000000030002081400008FD3F0008FF3F00084D
:1000100001400008034000080540000800000000FF
:100020000000000000000000000000000740000881
:1000300009400008000000000B4000080D400008C7
:10004000D1400008D1400008D1400008D14000084C
:10005000D1400008D1400008D1400008D14000083C
:10006000D1400008D1400008D1400008D14000082C
:10007000D1400008D1400008D1400008D14000081C
:10008000D1400008D1400008D1400008D14000080C
:10009000D1400008D1400008D1400008D1400008FC
:1000A000D1400008D1400008D1400008D1400008EC
:1000B000D1400008D140000800000000D1400008F5
:1000C000D14000080000000000000000D1400008FE
:1000D00000000000D1400008D1400008D1400008D5
:1000E000D1400008D14000080000000000000000DE
:1000F0000000000000000000000000000000000000
:1001000000000000000000000000000000000000EF
:100110000000000000000000D1400008D1400008AD
:1001200000000000000000000000000000000000CF
:1001300000000000000000000000000000000000BF
:10014000D1400008D140000800000000000000007D
:10015000000000000000000000000000000000009F
:10016000000000000000000000000000000000008F
:10017000000000000000000000000000000000007F
:0801800000000000D14000085E
:1001880010B5054C237833B9044B13B10448AFF3C9
:1001980000800123237010BDDC0100200000000056
:1001A800B85B00080C4B43B10C480D4910B5AFF3D0
:1001B80000800C48036823B910BD0A48036833B9A6
:1001C8007047094B002BF7D0BDE810401847064B85
:1001D800002BF5D0184700BF00000000B85B0008EE
:1001E800E0010020DC0100200000000081F0004157
:1001F80002E000BF83F0004330B54FEA41044FEA04
:10020800430594EA050F08BF90EA020F1FBF54EA9E
:10021800000C55EA020C7FEA645C7FEA655C00F03A
:10022800E2804FEA5454D4EB5555B8BF6D420CDD0B
:100238002C4480EA020281EA030382EA000083EA8E
:10024800010180EA020281EA0303362D88BF30BD2E
:1002580011F0004F4FEA01314FF4801C4CEA113184
:1002680002D0404261EB410113F0004F4FEA0333E3
:100278004CEA133302D0524263EB430394EA050F6E
:1002880000F0A780A4F10104D5F1200E0DDB02FADD
:100298000EFC22FA05F2801841F1000103FA0EF271
:1002A800801843FA05F359410EE0A5F120050EF137
:1002B800200E012A03FA0EFC28BF4CF0020C43FA68
:1002C80005F3C01851EBE37101F0004507D54FF075
:1002D800000EDCF1000C7EEB00006EEB0101B1F5C5
:1002E800801F1BD3B1F5001F0CD349085FEA30000B
:1002F8004FEA3C0C04F101044FEA445212F5800F16
:1003080080F09A80BCF1004F08BF5FEA500C50F1B2
:10031800000041EB045141EA050130BD5FEA4C0C95
:10032800404141EB010111F4801FA4F10104E9D11E
:1003380091F0000F04BF01460020B1FA81F308BF15
:100348002033A3F10B03B3F120020CDA0C3208DDE1
:1003580002F1140CC2F10C0201FA0CF021FA02F1BC
:100368000CE002F11402D8BFC2F1200C01FA02F12C
:1003780020FA0CFCDCBF41EA0C019040E41AA2BF51
:1003880001EB0451294330BD6FEA04041F3C1CDA19
:100398000C340EDC04F11404C4F1200220FA04F039
:1003A80001FA02F340EA030021FA04F345EA0301E3
:1003B80030BDC4F10C04C4F1200220FA02F001FAA5
:1003C80004F340EA0300294630BD21FA04F0294627
:1003D80030BD94F0000F83F4801306BF81F48011C0
:1003E8000134013D4EE77FEA645C18BF7FEA655C33
:1003F80029D094EA050F08BF90EA020F05D054EA05
:10040800000C04BF1946104630BD91EA030F1EBF09
:100418000021002030BD5FEA545C05D1400049410D
:1004280028BF41F0004130BD14F580043CBF01F500
:10043800801130BD01F0004545F0FE4141F47001E6
:100448004FF0000030BD7FEA645C1ABF19461046C1
:100458007FEA655C1CBF0B46024650EA013406BFC2
:1004680052EA033591EA030F41F4002130BD00BF81
:1004780090F0000F04BF0021704730B54FF480643E
:1004880004F132044FF000054FF0000150E700BFBF
:1004980090F0000F04BF0021704730B54FF480641E
:1004A80004F1320410F0004548BF40424FF000010B
:1004B8003EE700BF42004FEAE2014FEA31014FEA4E
:1004C80002701FBF12F07F4393F07F4F81F060519D
:1004D800704792F0000F14BF93F07F4F704730B50C
:1004E8004FF4607401F0004521F0004120E700BF9F
:1004F80050EA010208BF704730B54FF000050AE026
:1005080050EA010208BF704730B511F0004502D526
:10051800404261EB41014FF4806404F132045FEA28
:10052800915C3FF4DCAE4FF003025FEADC0C18BFCD
:1005380003325FEADC0C18BF033202EBDC02C2F1C3
:10054800200300FA03FC20FA02F001FA03FE40EA55
:100558000E0021FA02F11444C1E600BF70B54FF055
:10056800FF0C4CF4E06C1CEA11541DBF1CEA135537
:1005780094EA0C0F95EA0C0F00F0DEF82C4481EA9F
:10058800030621EA4C5123EA4C5350EA013518BFBF
:1005980052EA033541F4801143F4801338D0A0FBAC
:1005A80002CE4FF00005E1FB02E506F00042E0FB59
:1005B80003E54FF00006E1FB03569CF0000F18BF5F
:1005C8004EF0010EA4F1FF04B6F5007F64F5407407
:1005D80004D25FEA4E0E6D4146EB060642EAC6219A
:1005E80041EA55514FEAC52040EA5E504FEACE2E07
:1005F800B4F1FD0C88BFBCF5E06F1ED8BEF1004F0A
:1006080008BF5FEA500E50F1000041EB045170BD85
:1006180006F0004646EA010140EA020081EA0301C9
:10062800B4EB5C04C2BFD4EB0C0541EA045170BDC5
:1006380041F480114FF0000E013C00F3AB8014F13F
:10064800360FDEBF002001F0004170BDC4F1000488
:10065800203C35DA0C341BDC04F11404C4F1200509
:1006680000FA05F320FA04F001FA05F240EA020064
:1006780001F0004221F0004110EBD37021FA04F69A
:1006880042EB06015EEA430E08BF20EAD37070BD54
:10069800C4F10C04C4F1200500FA04F320FA05F0B3
:1006A80001FA04F240EA020001F0004110EBD370B5
:1006B80041F100015EEA430E08BF20EAD37070BD25
:1006C800C4F1200500FA05F24EEA020E20FA04F3FE
:1006D80001FA05F243EA020321FA04F001F00041AD
:1006E80021FA04F220EA020000EBD3705EEA430E1E
:1006F80008BF20EAD37070BD94F0000F0FD101F04D
:100708000046400041EB010111F4801F08BF013C85
:10071800F7D041EA060195F0000F18BF704703F0C3
:100728000046520043EB030313F4801F08BF013D4A
:10073800F7D043EA0603704794EA0C0F0CEA135506
:1007480018BF95EA0C0F0CD050EA410618BF52EAC0
:100758004306D1D181EA030101F000414FF00000C6
:1007680070BD50EA410606BF1046194652EA4306D4
:1007780019D094EA0C0F02D150EA013613D195EA48
:100788000C0F05D152EA03361CBF104619460AD190
:1007980081EA030101F0004141F0FE4141F470019A
:1007A8004FF0000070BD41F0FE4141F4780170BD8A
:1007B80070B54FF0FF0C4CF4E06C1CEA11541DBFEF
:1007C8001CEA135594EA0C0F95EA0C0F00F0A7F8F1
:1007D800A4EB050481EA030E52EA03354FEA01311E
:1007E80000F088804FEA03334FF0805545EA131331
:1007F80043EA12634FEA022245EA111545EA1065F9
:100808004FEA00260EF000419D4208BF964244F18F
:10081800FD0404F5407402D25B084FEA3202B61AAE
:1008280065EB03055B084FEA32024FF480104FF482
:10083800002CB6EB020E75EB030E22BFB61A7546F6
:1008480040EA0C005B084FEA3202B6EB020E75EB89
:10085800030E22BFB61A754640EA5C005B084FEAF1
:100868003202B6EB020E75EB030E22BFB61A7546BE
:1008780040EA9C005B084FEA3202B6EB020E75EBC9
:10088800030E22BFB61A754640EADC0055EA060E8A
:1008980018D04FEA051545EA16754FEA06164FEACD
:1008A800C30343EA52734FEAC2025FEA1C1CC0D179
:1008B80011F4801F0BD141EA00014FF000004FF006
:1008C800004CB6E711F4801F04BF01430020B4F1C7
:1008D800FD0C88BFBCF5E06F3FF6AFAEB5EB030C7F
:1008E80004BFB6EB020C5FEA500C50F1000041EB7C
:1008F800045170BD0EF0004E4EEA113114EB5C0449
:10090800C2BFD4EB0C0541EA045170BD41F480111B
:100918004FF0000E013C90E645EA060E8DE60CEA23
:10092800135594EA0C0F08BF95EA0C0F3FF43BAF40
:1009380094EA0C0F0AD150EA01347FF434AF95EAF7
:100948000C0F7FF425AF104619462CE795EA0C0FDB
:1009580006D152EA03353FF4FDAE1046194622E7A8
:1009680050EA410618BF52EA43067FF4C5AE50EA82
:1009780041047FF40DAF52EA43057FF4EBAE12E772
:100988004FEA410212F5001215D211D56FF47873AF
:10099800B3EB625212D94FEAC12343F0004343EA52
:1009A800505311F0004F23FA02F018BF404270472D
:1009B8004FF00000704750EA013005D111F00040B7
:1009C80008BF6FF0004070474FF00000704700BF4D
:1009D800034613F8012B002AFBD1181A0138704777
:1009E8004FF0FF3C06E000BF4FF0010C02E000BFF3
:1009F8004FF0010C4DF804CD4FEA410C7FEA6C5CD6
:100A08004FEA430C18BF7FEA6C5C1BD001B050EA78
:100A1800410C0CBF52EA430C91EA030F02BF90EA63
:100A2800020F0020704710F1000F91EA030F58BF22
:100A3800994208BF90422CBFD8176FEAE37040F084
:100A4800010070474FEA410C7FEA6C5C02D150EA22
:100A5800013C07D14FEA430C7FEA6C5CD6D152EADD
:100A6800033CD3D05DF8040B704700BF84461046A2
:100A780062468C461946634600E000BF01B5FFF7A1
:100A8800B7FF002848BF10F1000F01BD4DF808ED71
:100A9800FFF7F4FF0CBF012000205DF808FB00BF42
:100AA8004DF808EDFFF7EAFF34BF012000205DF89C
:100AB80008FB00BF4DF808EDFFF7E0FF94BF0120E9
:100AC80000205DF808FB00BF4DF808EDFFF7CEFFEA
:100AD80094BF012000205DF808FB00BF4DF808ED29
:100AE800FFF7C4FF34BF012000205DF808FB00BFFA
:100AF8004FEA410C7FEA6C5C02D150EA013C0AD112
:100B08004FEA430C7FEA6C5C02D152EA033C02D103
:100B18004FF0000070474FF00100704710B50446D1
:100B28000E4B18784FF47A73B3FBF0F30C4A106845
:100B3800B0FBF3F001F0E2F968B90F2C01D90120FC
:100B480010BD002221464FF0FF3001F0A5F9034BFC
:100B58005C60002010BD012010BD00BF0000002017
:100B68000800002008B5074A136843F01003136013
:100B7800032001F07FF90020FFF7D0FF03F030F9E0
:100B8800002008BD00200240034A1168034B1B786F
:100B98000B441360704700BF88020020000000204B
:100BA800014B1868704700BF8802002038B504461A
:100BB800FFF7F6FF0546B4F1FF3F02D0044B1B7860
:100BC8001C44FFF7EDFF401B8442FAD838BD00BF34
:100BD8000000002038B50268936803F00303012B76
:100BE80011D00023002B37D0936803F00D03012B9D
:100BF80011D0436C43F010034364836C43F001034A
:100C08008364012038BD136813F0010F01D100235C
:100C1800E8E70123E6E70446936843F0020393609C
:100C2800036803221A60FFF7BBFF054623689B6829
:100C380013F0010F0ED0FFF7B3FF401B0228F5D9C0
:100C4800636C43F010036364A36C43F00103A36473
:100C5800012038BD002038BD002038BD03689A68DF
:100C680012F00C0F62D070B50446DA6812F0007FFB
:100C780002D0C269012A38D060290CD023689A684A
:100C880012F0040F07D09A6812F0020F03D19A6885
:100C980042F010029A600C290CD023689A6812F06E
:100CA800080F07D09A6812F0020F03D19A6842F031
:100CB80020029A60602935D06C2931D10C25FFF7C4
:100CC8006FFF064623689B681D422DD0FFF768FF1B
:100CD800801B0B28F6D9636C43F010036364A36C84
:100CE80043F00103A364012070BD8269012AC3D1C6
:100CF8000022196811F0400F0ED10D498A4201D81F
:100D08000132F6E7636C43F010036364A36C43F0AD
:100D18000103A364012070BD40221A600C21ABE7D7
:100D28000425CCE70825CAE7002070BD00207047DD
:100D3800FF93090038B50268936803F00303012B99
:100D480010D00023002B33D191681A4B194211D0CF
:100D5800436C43F010034364836C43F001038364E2
:100D6800012038BD136813F0010F01D10023E9E712
:100D78000123E7E70446936843F001039360FFF714
:100D88000FFF054623681B6813F0010F0ED1FFF70C
:100D980007FF401B0228F5D9636C43F01003636416
:100DA800A36C43F00103A364012038BD002038BDC3
:100DB800002038BD3F00008030B597B00023009375
:100DC800002800F0FB800446436C13F0100F51D14B
:100DD800436CABB1002023689A6812F0805F03D09F
:100DE8009B6813F0005F46D0636C23F0120343F056
:100DF80010036364A36C43F00103A36401203AE089
:100E080083640365C36480F8403003F031F82368D5
:100E18009B6813F0805F01D00020DCE72046FFF7D5
:100E2800D9FE636C13F0100FD5D10028D3D1636CB1
:100E380023F4885323F0020343F002036364226817
:100E4800936823F0405393602268936843F080537B
:100E580093605B4B1B685B4AA2FB03239B0C03EB71
:100E680083035A000092009B002BB4D0009B013BE7
:100E78000093F8E70020636C13F0100F40F09580A2
:100E8800002840F092802268936813F0040340F031
:100E98008C80616C21F4817141F002016164B2F1CE
:100EA800A04F55D04FF0A0410191916801F0030186
:100EB800012950D0002272B9019D2DB1A96801F015
:100EC800030101294FD032B93F498A6822F44032E0
:100ED80065682A438A60E2695103A56B012D01D038
:100EE8004FF480530B43E1680B43A1680B43616ADD
:100EF80001293ED0E26A012A02D0216B0A4313433A
:100F08002268916811F00C0F0BD1D16821F480414F
:100F180021F00201D160A169626B520042EA81327C
:100F280013432168CD68294A2A401343CB602369BB
:100F3800012B31D02268136B23F00F0313630023B6
:100F4800A364636C23F0030343F00103636433E099
:100F58001F490191A9E7126812F0010F01D100227F
:100F6800A9E70122A7E7296811F0010FABD00122F8
:100F7800A9E732B9A26A013A43EA424343F480330B
:100F8800B8E7626C22F0220242F020026264A26C8E
:100F980042F00102A264ADE721680B6B23F00F0356
:100FA800226A013A13430B63C9E7636C23F0120307
:100FB80043F010036364012017B030BD0120FBE744
:100FC8000800002083DE1B430003005007C0F0FF29
:100FD8000001005003689B6813F0080F02D0022339
:100FE8001846704790F84030012B01D10223F7E7EB
:100FF80010B50446012380F84030FFF79BFE0346F6
:10100800002843D1626C22F4405222F0010242F4DB
:1010180080526264204A926812F01F0F08D022683A
:10102800B2F1A04F04D0626C42F48012626403E013
:10103800626C22F480126264626C12F4807F01D1C7
:101048000022A264002284F84020226860211160F6
:101058002268D16811F0007F1BD10F49896811F00F
:101068001F0F0ED00C49896801F01F01062908D00E
:101078000949896801F01F01072902D0B2F1A04F80
:1010880007D1916841F00801916002E0002284F8DC
:101098004020184610BD00BF0003005090F84030B3
:1010A800012B36D010B50446012380F84030036880
:1010B800DB6813F0007F09D0436C43F020034364DE
:1010C8000123002284F84020184610BD6021FFF754
:1010D800C5FD03460028F4D12268926812F0040F77
:1010E80003D1626C12F4807F04D0626C22F48052C7
:1010F8006264E6E72046FFF76DFD03460028E0D16D
:10110800626C22F4885222F0010242F00102626409
:10111800D7E70223184670472DE9F04104460D46EB
:101128004369082B0DD06026294B9B6813F01F0FCD
:1011380009D02368B3F1A04F05D04FF0A043DF6872
:1011480003E04026F0E72368DF68FFF729FD8046C3
:1011580023681A68164213D1B5F1FF3FF8D02DB1B4
:10116800FFF71EFDA0EB08008542F1D2636C43F047
:1011780004036364002384F840300320BDE8F08151
:10118800626C42F400526264DA6C12F0C00F09D04B
:1011980017F0007F12D1DA6812F4406F0ED117F4FD
:1011A800005F0BD1626C22F480526264626C12F4AC
:1011B800807F03D1626C42F00102626417F4804FB1
:1011C80003D11E600020BDE8F0810020BDE8F08159
:1011D8000003005003290BD0042905D002290BD0A5
:1011E8000368D3F8800070470368D3F88C00704711
:1011F8000368D3F8880070470368D3F88400704701
:1012080070B497B00022009290F84020012A00F0B4
:10121800AD810346012280F840200068826812F000
:10122800040F40F096814A68042A31D8046B02EB17
:10123800420255001F22AA4024EA02020C68AC4070
:10124800224302631868826812F00C0F68D10A689A
:10125800092A4ED9846902EB42021E3A07259540B5
:1012680024EA05048D6805FA02F22243826148697E
:101278001C68E268C2F3C102520000FA02F208696F
:101288000138032800F28F80DFE800F0406C778295
:10129800092A0ED8446B02EB420255001E3D1F225C
:1012A800AA4024EA02020C6804FA05F52A434263BC
:1012B800C8E70E2A0ED8846B02EB420255003C3D6B
:1012C8001F22AA4024EA02020C6804FA05F52A4300
:1012D8008263B7E7C46B02EB420255005A3D1F22F6
:1012E800AA4024EA02020C6804FA05F52A43C263FC
:1012F800A8E7446902EB42020725954024EA050461
:101308008D6805FA02F222434261B0E7206E984DDB
:101318000540086842EA8062154345F000452566A5
:101328001868826802F00302012A6FD00022002A9E
:1013380040F01A81CC68012C70D0D0F8B0400E680B
:101348000125B54024EA0504C0F8B0400968102911
:1013580000F08D80112900F0AF80122900F0B280D2
:101368000020FBE0606E824D0540086842EA80621A
:10137800154345F000456566D2E7A06E7C4D0540F3
:10138800086842EA8062154345F00045A566C7E74C
:10139800E56E774828400D6842EA8562024342F0CC
:1013A8000042E266BCE7226E02F0F8420868B2EB3F
:1013B800806F1CD01868426E02F0F8420C68B2EBDD
:1013C800846F19D01868826E02F0F8420C68B2EB8C
:1013D800846F16D01868C26E02F0F8420C68B2EB3F
:1013E800846F9DD1C26E22F00042C26698E7226ED9
:1013F80022F000422266DDE7426E22F00042426699
:10140800E0E7826E22F000428266E3E7026812F0AB
:10141800010F01D100228AE7012288E7D0F8B04005
:101428000E680125B5402C43C0F8B040086809286B
:101438000ED91E68B46900EB40001B3807258540AB
:1014480024EA05048D6805FA00F02043B0617DE7C1
:101458001E687469013000EB40000725854024EAC6
:1014680005048D6805FA00F0204370616EE7414875
:10147800806810F4000F7FF46DAF1C68B4F1A04FC2
:1014880027D04FF0A0400190A06800F00300012889
:1014980022D0002A57D1019D35B1A86800F0030079
:1014A80001281FD0002A4ED1102921D0112939D066
:1014B800122941D0002051E02E48806810F0807F2A
:1014C800DBD04AE72B48806810F4800FD5D0002085
:1014D80044E029480190D7E7206810F0010FD8D0E0
:1014E8000122D6E7286810F0010FDBD00122D9E7E6
:1014F800B4F1A04FDAD11F498A6842F400028A6029
:101508001E4A12681E49B2FBF1F10A2202FB01F2DF
:10151800009202E0009A013A0092009A002AF9D15A
:1015280000201BE0B4F1A04FC2D112498A6842F0F2
:1015380080728A60002011E00E498A6842F48002B5
:101548008A6000200AE05A6C42F020025A640120A6
:1015580004E05A6C42F020025A640120002283F809
:10156800402017B070BC70470020F7E70220F8E76A
:1015780000F0FF8300030050000100500800002025
:1015880040420F00F0B496B0034600220092006972
:1015980093F84020012A00F0F881012283F84020C6
:1015A800002833D08A69012A30D0186D60B91A65CD
:1015B8000022DA648A6A012A00F08E80886901387C
:1015C8000243C86A0243DA64DA6C4C6804EB4404E8
:1015D800600002301F24844022EA04020C6804FAE6
:1015E80000F00243DA64186D01381865002877D1D5
:1015F8001C68E06C20F0FB4020F4EF0020F4BF40B2
:1016080020F07F000243E264002007E04A68012AD4
:1016180048D05A6C42F020025A6401201A68946833
:1016280014F0080F0CD10C6A002C5BD1D46824F498
:1016380040144E6ACD692D0545EA46552C43D460C1
:101648001A68946814F00C0F40F082808C6A012CA0
:1016580058D0D46824F00074D4600A6A012A59D09A
:101668000A68092A5CD91E68B46902EB42021E3A6C
:101678000725954024EA05048D6805FA02F22243FD
:10168800B2614C691D68EA68C2F3C102520004FAEB
:1016980002F20C69013C032C00F29F80DFE804F0A1
:1016A8004E7C87928A6A012A13D0086842EA00228F
:1016B800C86A02431C68E06C20F0FB4020F4EF008D
:1016C80020F4BF4020F07F001043E064DA6400207B
:1016D800A4E70A681202EDE78A69013ADA6473E757
:1016E80000209BE7D46824F440144D6A44EA45542A
:1016F800D460CA69012AA3D15A6C42F020025A6404
:1017080001209DE7D46824F000740D6A44EA45641A
:10171800D460A5E75A6C42F020025A6401209FE782
:101728001E68746902EB42020725954024EA050405
:101738008D6805FA02F222437261A2E72C6E944E7C
:1017480026400C6842EA8462164346F000462E663C
:101758001C68A26802F00302012A71D00022AAB90B
:10176800CD68012D74D0D4F8B0500F680126BE4062
:1017780025EA0605C4F8B0500968102900F09180E0
:10178800112900F0B880122900F0BB80002283F8EC
:10179800402016B0F0BC70476C6E7D4E26400C6839
:1017A80042EA8462164346F000466E66D0E7AC6EA5
:1017B800774E26400C6842EA8462164346F000469B
:1017C800AE66C5E7EE6E724C34400E6842EA866239
:1017D800224342F00042EA66BAE72A6E02F0F84273
:1017E8000C68B2EB846F1CD01C68626E02F0F84281
:1017F8000D68B2EB856F19D01C68A26E02F0F84232
:101808000D68B2EB856F16D01C68E26E02F0F842E4
:101818000D68B2EB856F9BD1E26E22F00042E26662
:1018280096E72A6E22F000422A66DDE7626E22F011
:1018380000426266E0E7A26E22F00042A266E3E799
:10184800226812F0010F01D1002288E7012286E701
:10185800D4F8B0500F680126BE403543C4F8B050E4
:101868000C68092C0ED91F68BD6904EB44041B3CA5
:101878000726A64025EA06058E6806FA04F42C43D6
:10188800BC6179E71F687D69013404EB44040726CD
:10189800A64025EA06058E6806FA04F42C437C6106
:1018A8006AE73C4CA46814F4000F7FF469AF1D6824
:1018B800B5F1A04F2CD04FF0A0440194AC6804F0CF
:1018C8000304012C27D0002A59D1019E36B1B468EF
:1018D80004F00304012C24D0002A50D1102926D06A
:1018E800112943D012297FF451AF2A498A6842F45A
:1018F80080028A604AE7274CA46814F0807FD6D01B
:1019080041E7244CA46814F4800F7FF43FAFCEE77E
:10191800214C0194D2E72C6814F0010FD3D0012296
:10192800D1E7346814F0010FD6D00122D4E7B5F11D
:10193800A04FD5D117498A6842F400028A60174A35
:101948001268A1F14E61A1F58421A1F27D41A1FBAC
:101958000212920C02EB82025100009102E0009AFE
:10196800013A0092009A002AF9D10FE7B5F1A04F89
:10197800B8D108498A6842F080728A6006E75A6CD2
:1019880042F020025A64012000E7022001E700BF6C
:1019980000F0FF8300030050000100500800002001
:1019A80070B497B003460268B2F1A04F40D04FF030
:1019B800A04001900198002800F0888093F84040EA
:1019C800012C00F08580012483F84040926812F0D1
:1019D800040F68D1826812F0040F64D10A68002AE3
:1019E80037D03C4DAA6822F460424C685E6B44EAEA
:1019F80046342243AA601C68A26802F00302012A46
:101A080019D00022002A59D1846804F00304012C5B
:101A180019D0002A54D12F4CA26822F4716222F006
:101A28000F020868896801430A43A26000203FE06A
:101A380029480190BEE7226812F0010F01D1002267
:101A4800E0E70122DEE7006810F0010FE1D0012293
:101A5800DFE720498A6822F460428A6019688A6848
:101A680002F00302012A10D000225ABB816801F05B
:101A78000301012911D03ABB16498A6822F4716220
:101A880022F00F028A60002012E00A6812F0010FAB
:101A980001D10022E9E70122E7E7016811F0010F0F
:101AA800E9D00122E7E75A6C42F020025A6401208B
:101AB800002283F8402017B070BC70470020F7E779
:101AC8000020F5E70020F3E70020F1E70120F2E726
:101AD8000220F0E70003005000010050002800F049
:101AE800BB8038B5044690F83D3003B3022384F830
:101AF8003D302268136823F00203136022681368DC
:101B080043F001031360FFF74BF8054623685A6852
:101B180012F0010F10D1FFF743F8401B0A28F5D93E
:101B2800032084F83D00002384F83C3038BD80F859
:101B38003C3002F0E9F9D9E75A6812F0010F7CD07D
:101B4800A269012A50D01A6822F080021A60E3695B
:101B5800012B4ED02268136823F040031360236AD8
:101B6800012B4CD02268136823F020031360636AAA
:101B7800012B4AD02268136823F010031360A36A6C
:101B8800012B48D02268136823F008031360E36A26
:101B9800012B46D02268136823F0040313602168E0
:101BA800A368E268134322691343626913436268B6
:101BB800013A1343CB612268136823F001031360D1
:101BC800FEF7EEFF054623685A6812F0010F2ED083
:101BD800FEF7E6FF401B0A28F5D9032084F83D00EC
:101BE800002384F83C3038BD1A6842F080021A603D
:101BF800ADE72268136843F040031360AFE722683B
:101C0800136843F020031360B1E72268136843F0B8
:101C180010031360B3E72268136843F008031360E6
:101C2800B5E72268136843F004031360B7E75B68FD
:101C380013F0010F08D0002300E0002333B9042378
:101C480084F83D30012038BD0123F7E700202064E7
:101C5800012384F83D3038BD01207047F8B503688A
:101C68009A6812F0806F08D19A6812F0006F04D158
:101C78009A6812F0805F00F0F08090F83C20012A0A
:101C880000F0F080012280F83C2090F83D20D2B28C
:101C9800322A14D0622A16D0222A03D0122280F8BF
:101CA8003D2002E0422280F83D209A6812F0806FC1
:101CB8000DD19A6812F0006F61D0012508E0522218
:101CC80080F83D20F1E7722280F83D20EDE70025FD
:101CD80005F1180212019C5804F001049C50026B93
:101CE8009368002B4DD1066805F118031B01F458C1
:101CF8001768D26842EA47522243F2500E46044619
:101D0800026B136903F00F031361036805F11801EF
:101D180009010B445A6822F00F025A6003680B4409
:101D28005A68006B006902435A602268206BC77DBD
:101D3800837D1B0443EA0763477D43EA0723007D4D
:101D480003432F013A44C2F888312268206B90F887
:101D58001BE0837E1B0443EA0E6390F819E043EA14
:101D68000E23007E03433A44C2F88C31226853584C
:101D780043F001035350FEF713FF07463FE00225E7
:101D8800A6E7076805F11804240157F804E0566827
:101D980043EAC603D268134343EA0E033B51ADE757
:101DA80026B1FEF7FDFEC01B864228D2032384F825
:101DB8003D304DB92268936843F080039360002357
:101DC80084F83C300320F8BD012D05D022689368C3
:101DD80043F400039360F2E72268936843F40043F6
:101DE8009360ECE7012D14D023689A681E4B934347
:101DF80014BF01230023A3B1B6F1FF3FD0D1002DBA
:101E0800F0D123689A68194B934314BF0123002328
:101E1800F1E723689A68164B934314BF0123002304
:101E2800E9E794F83D30DBB2522B0ED0722B10D07C
:101E3800422B03D0012384F83D3002E0222384F8AA
:101E48003D30002084F83C00F8BD322384F83D3052
:101E5800F7E7622384F83D30F3E7042380F83D3048
:101E68000120F8BD0220F8BD0000011001000004A7
:101E780000010008074AD36823F4E0631B041B0C25
:101E8800000200F4E060184340F0BF6040F4003006
:101E9800D060704700ED00E030B4164BDB68C3F348
:101EA8000223C3F10704042C28BF04241D1D062D9A
:101EB80017D9033B012505FA04F4013C2140994058
:101EC80005FA03F3013B1340194300280BDB090112
:101ED800C9B200F1604000F5614080F8001330BCE1
:101EE80070470023E6E700F00F000901C9B2024B72
:101EF8001954F4E700ED00E014ED00E00138B0F10A
:101F0800807F0AD2064B5860F021064A82F82310D7
:101F18000020986007221A6070470120704700BFB0
:101F280010E000E000ED00E0042805D0054A136841
:101F380023F0040313607047024A136843F0040354
:101F48001360704710E000E0704708B5FFF7FCFF2A
:101F580008BD0000F0B583B0002388E0DE0808362D
:101F680050F8264003F0070E4FEA8E0E0F2707FAA7
:101F78000EF724EA07040F6907FA0EF73C4340F806
:101F8800264083E086682640CF6807FA0EF73E436E
:101F98008660466826EA05054E68C6F300169E4028
:101FA80035434560C5682C408D6805FA0EF52C430D
:101FB800C4604C6814F0805F58D0474CA56945F060
:101FC8000105A561A46904F001040194019C9D0820
:101FD800AE1C424C54F8264003F00306B6000F2707
:101FE800B74024EA0704B0F1904F6CD03C4FB84298
:101FF8006BD007F58067B84269D007F58067B842AB
:102008005FD0052707FA06F634430235334E46F803
:102018002540344C2568D44305EA04064F6817F474
:10202800803F01D042EA05062E4D2E606D6804EA15
:1020380005064F6817F4003F01D042EA0506294D0E
:102048006E60AD6804EA05064F6817F4801F01D07A
:1020580042EA0506234DAE60ED682C404E6816F442
:10206800001F01D042EA05041E4AD46001330A6801
:1020780032FA03F42DD001259D402A40F6D04C6851
:10208800022C3FF46BAF122C3FF468AF06684FEA9E
:10209800430E032404FA0EF4E44326404F6807F085
:1020A800030707FA0EF73E4306604E68771E012FB6
:1020B8007FF668AF112E3FF465AF122E7FF472AF32
:1020C80060E703279EE700279CE701279AE7022796
:1020D80098E703B0F0BD00BF0010024000000140C7
:1020E80000040048000401400AB981627047816118
:1020F8007047000070B582B00446036813F0010F02
:1021080063D0B54B5B6803F00C03042B46D0B24B8D
:102118005B6803F00C03082B3BD06368B3F5803F82
:1021280000F08E80002B40F0918003F1804303F58E
:1021380004331A6822F480321A601A6822F4802262
:102148001A60A54AD36A23F00F03A1680B43D36230
:102158006368002B00F09480FEF722FD05464FF4DB
:10216800003393FAA3F39C4B19684FF4003393FAA6
:10217800A3F3B3FA83F303F01F03012202FA03F374
:10218800194222D1FEF70CFD401B6428E7D9032031
:10219800ABE2914B5B6813F4803FBED04FF4003341
:1021A80093FAA3F38C4B19684FF4003393FAA3F313
:1021B800B3FA83F303F01F03012202FA03F319426F
:1021C80003D06368002B00F08982236813F0020FA4
:1021D80000F09C80804B5B6813F00C0F72D07E4B34
:1021E8005B6803F00C03082B67D02369002B00F011
:1021F800CB80012292FAA2F3B3FA83F303F184535A
:1022080003F584139B001A60FEF7CAFC05460223F7
:1022180093FAA3F3704B1968022393FAA3F3B3FA62
:1022280083F303F01F03012202FA03F3194240F07B
:102238009C80FEF7B5FC401B0228E8D9032054E235
:10224800654A136843F4803313607AE7B3F5A02F27
:1022580009D0614B1A6822F480321A601A6822F495
:1022680080221A606DE703F18043A3F53C331A68B6
:1022780042F480221A601A6842F480321A6060E7D9
:10228800FEF78EFC05464FF4003393FAA3F3524B46
:1022980019684FF4003393FAA3F3B3FA83F303F006
:1022A8001F03012202FA03F319428ED0FEF778FCCD
:1022B800401B6428E7D9032017E2474B5B6813F4F7
:1022C800803F92D1022393FAA3F3434B1968022368
:1022D80093FAA3F3B3FA83F303F01F03012202FA7C
:1022E80003F3194204D02369934201D00120FCE191
:1022F8003948036823F0F8036169F82292FAA2F2D8
:10230800B2FA82F201FA02F213430360236813F06F
:10231800080F00F08D80A369002B61D0012191FA8C
:10232800A1F2B2FA82F22D4B13449B001960FEF71A
:1023380037FC0546022393FAA3F293FAA3F293FA21
:10234800A3F2254A516A93FAA3F3B3FA83F303F08D
:102358001F03012202FA03F3194269D1FEF720FC98
:10236800401B0228E6D90320BFE11B48036823F07D
:10237800F8036169F82292FAA2F2B2FA82F201FA3B
:1023880002F213430360C1E7012393FAA3F3B3FAFC
:1023980083F303F1845303F584139B0000221A602E
:1023A800FEF7FEFB0546022393FAA3F30A4B1968CE
:1023B800022393FAA3F3B3FA83F303F01F03012272
:1023C80002FA03F31942A1D0FEF7EAFB401B0228E8
:1023D800E9D9032089E100BF001002402081901054
:1023E800012292FAA2F2B2FA82F2C14B13449B0084
:1023F80000221A60FEF7D4FB0546022393FAA3F2E3
:1024080093FAA3F293FAA3F2BA4A516A93FAA3F39E
:10241800B3FA83F303F01F03012202FA03F319420C
:1024280006D0FEF7BDFB401B0228E6D903205CE17D
:10243800236813F0040F00F0B380AE4BDB6913F090
:10244800805F26D1AB4BDA6942F08052DA61DB69F2
:1024580003F080530193019B0125A74B1B6813F4DC
:10246800807F18D0E368012B29D073BB03F1804328
:1024780003F504331A6A22F001021A621A6A22F07A
:1024880004021A62E368002B5DD0FEF789FB06465A
:1024980047E00025E1E7984A136843F48073136026
:1024A800FEF77EFB0646944B1B6813F4807FD9D158
:1024B800FEF776FB801B6428F5D9032015E18D4AC9
:1024C800136A43F001031362DCE7052B09D0894B3B
:1024D8001A6A22F001021A621A6A22F004021A62C7
:1024E800D0E7844B1A6A42F004021A621A6A42F070
:1024F80001021A62C6E77F4B196A022393FAA3F313
:10250800B3FA83F303F01F03012202FA03F319421B
:1025180045D1FEF745FB801B41F28833984200F213
:10252800DF80022393FAA3F293FAA3F3B3FA83F3B7
:102538005B0943F00203022BDDD0022393FAA3F3D5
:102548006C4B596AD9E7FEF72BFB064615E0694B39
:10255800196A022393FAA3F3B3FA83F303F01F0370
:10256800012202FA03F3194219D0FEF719FB801B66
:1025780041F28833984200F2B580022393FAA3F21D
:1025880093FAA3F3B3FA83F35B0943F00203022B34
:10259800DDD0022393FAA3F3564B596AD9E7B5BBAA
:1025A800E369002B00F0A080524A526802F00C0246
:1025B800082A00F0A380022B2FD04FF0807393FAE3
:1025C800A3F3B3FA83F303F1845303F584139B0055
:1025D80000221A60FEF7E4FA04464FF0007393FAFB
:1025E800A3F3444B19684FF0007393FAA3F3B3FABB
:1025F80083F303F01F03012202FA03F319426BD09D
:10260800FEF7CEFA001B0228E7D903206DE0394A0D
:10261800D36923F08053D361C2E74FF0807393FAF4
:10262800A3F3B3FA83F303F1845303F584139B00F4
:1026380000221A60FEF7B4FA05464FF0007393FAC9
:10264800A3F32C4B19684FF0007393FAA3F3B3FA72
:1026580083F303F01F03012202FA03F3194206D0A1
:10266800FEF79EFA401B0228E7D903203DE02149E6
:102678004B6823F47413626A206A024313434B6065
:102688004FF0807393FAA3F3B3FA83F303F18453FF
:1026980003F584139B0001221A60FEF781FA0446B1
:1026A8004FF0007393FAA3F3124B19684FF00073BD
:1026B80093FAA3F3B3FA83F303F01F03012202FA98
:1026C80003F3194206D1FEF76BFA001B0228E7D97B
:1026D80003200AE0002008E0002006E0012004E0D2
:1026E800032002E0032000E0002002B070BD00BF1C
:1026F8002081901000100240007000400120F4E793
:10270800174B5B6803F00C02082A27D110B403F4B6
:1027180070114FF4701292FAA2F2B2FA82F221FA10
:1027280002F2104CA05C0E4AD26A02F00F020F218E
:1027380091FAA1F1B1FA81F1CA402244127C13F452
:10274800803F05D1084B03FB00F05DF8044B704750
:10275800064BB3FBF2F303FB00F0F6E703487047C0
:1027680000100240D05B000800093D0000127A000A
:10277800704B1B6803F007038B420CD26D4A136839
:1027880023F007030B431360136803F00703994210
:1027980001D00120704770B5036813F0020F06D00E
:1027A800654A536823F0F0038468234353600D4659
:1027B8000446036813F0010F7AD04368012B2FD029
:1027C800022B42D0022292FAA2F25B4A106802223D
:1027D80092FAA2F2B2FA82F202F01F02012101FA81
:1027E80002F2104200F0A48053494A6822F0030222
:1027F80013434B60FEF7D4F906466368012B39D0C2
:10280800022B46D04C4B5B6813F00C0F50D0FEF7F0
:10281800C7F9801B41F288339842F3D9032070BD71
:102828004FF4003292FAA2F2434A10684FF4003291
:1028380092FAA2F2B2FA82F202F01F02012101FA20
:1028480002F21042D0D1012070BD4FF0007292FA0E
:10285800A2F2394A10684FF0007292FAA2F2B2FA64
:1028680082F202F01F02012101FA02F21042BBD1EA
:10287800012070BD304B5B6803F00C03042B17D0AC
:10288800FEF78EF9801B41F288339842F2D9032073
:1028980070BD294B5B6803F00C03082B08D0FEF7CA
:1028A8007FF9801B41F288339842F2D9032070BD2A
:1028B800204B1B6803F007039D420CD21D4A136886
:1028C80023F007032B431360136803F007039D42AB
:1028D80001D0012070BD236813F0040F06D0164AFA
:1028E800536823F4E063E1680B435360236813F0F3
:1028F800080F07D0104A536823F46053216943EA4C
:10290800C1035360FFF7FCFE0B4B5B6803F0F00359
:10291800F02292FAA2F2B2FA82F2D340074AD35CCA
:10292800D840074B18600020FEF7F8F8002070BD6B
:10293800012070BD0020024000100240F05B00083A
:1029480008000020014B1868704700BF08000020ED
:10295800F0B583B00446036813F4803F44D05F4B5E
:10296800DB6913F0805F6ED15C4BDA6942F080520C
:10297800DA61DB6903F080530193019B0125584B11
:102988001B6813F4807F60D0544B1B6A13F44073A8
:1029980021D0626802F4407293421CD04F48016A09
:1029A80021F440764FF4803393FAA3F2B2FA82F21C
:1029B8004C4F3A4492004FF0010EC2F800E093FAEF
:1029C800A3F3B3FA83F33B449B0000221A60066228
:1029D80011F0010F4DD1414A136A23F44073616825
:1029E8000B431362002D6FD1236813F0010F06D03B
:1029F8003A4A136B23F00303A1680B43136323685C
:102A080013F0200F06D0354A136B23F01003E1684A
:102A18000B431363236813F0800F06D02F4AD36A41
:102A280023F4F87321690B43D362236813F4805F9E
:102A380051D02A4A136B23F4807361690B431363E3
:102A4800002003B0F0BD002599E7254A136843F438
:102A580080731360FEF7A4F80646214B1B6813F435
:102A6800807F91D1FEF79CF8801B6428F5D903205C
:102A7800E7E7FEF795F8064614E0184B196A0223B3
:102A880093FAA3F3B3FA83F303F01F03012202FAC4
:102A980003F319429FD1FEF783F8801B41F2883374
:102AA800984216D8022393FAA3F293FAA3F3B3FA3F
:102AB80083F35B0943F00203022BDED0022393FA6F
:102AC800A3F3064B596ADAE7D36923F08053D3613D
:102AD8008AE70320B5E70020B3E700BF00100240F3
:102AE8000070004000819010F8B505460F46164664
:102AF8001C4639E02CB1FEF753F8069BC01A8442F5
:102B080032D82A68536823F0E00353606B68B3F542
:102B1800827F0BD0AB6AB3F5005F14D0012385F830
:102B28005D30002385F85C300320F8BDAB68B3F551
:102B3800004F02D0B3F5806FECD12A68136823F0F8
:102B480040031360E6E72A68136823F40053136010
:102B58002A68136843F400531360DFE70123B34284
:102B680009D0B4F1FF3FC5D12B689B6837EA03034E
:102B7800F4D00023F3E70020F8BDF0B583B0074692
:102B88000C4615461E4602E0B6F1FF3F10D13A68E2
:102B980093682340AB423FD0B4F5C06FF4D1002D09
:102BA800F2D1137BDBB28DF807309DF80730EBE7E5
:102BB8002EB1FDF7F5FF089BC01A8642E7D83A68A0
:102BC800536823F0E00353607B68B3F5827F0BD032
:102BD800BB6AB3F5005F14D0012387F85D3000238A
:102BE80087F85C30032018E0BB68B3F5004F02D0CB
:102BF800B3F5806FECD13A68136823F04003136093
:102C0800E6E73A68136823F4005313603A681368D8
:102C180043F400531360DFE7002003B0F0BD70B544
:102C280082B004460D46164600920B4600224FF429
:102C3800C051FFF7A2FF38B1236E43F0200323668B
:102C48000323184602B070BD00962B46002280214F
:102C58002046FFF749FF28B1236E43F0200323667F
:102C68000323EEE700962B4600224FF4C06120466E
:102C7800FFF783FF03460028E3D0236E43F02003C9
:102C880023660323DDE770B582B004460D46164679
:102C98004368B3F5827F10D000962B46002280212E
:102CA8002046FFF721FF0346A0B1236E43F020031F
:102CB80023660323184602B070BD8368B3F5004F3E
:102CC80002D0B3F5806FE7D12268136823F0400380
:102CD8001360E1E76268B2F5827FEBD1A268B2F5D2
:102CE800004F02D0B2F5806FE4D100962B46002247
:102CF8004FF4C0612046FFF740FF03460028D9D0B3
:102D0800236E43F0200323660323D3E7002853D020
:102D180010B504460023836290F85D30002B40D044
:102D2800022384F85D302268136823F0400313609F
:102D3800E368B3F5E06F39D90021B3F5706F04D0BB
:102D4800B3F5E06F01D00022A262226B22B9B3F57D
:102D5800E06F2ED90223236322686368A0680343C7
:102D68002069034360690343A06900F400700343CA
:102D7800E0690343206A0343A06A0343136022689F
:102D8800638B03F00403606A0343606B0343E068EA
:102D980003430B43536000202066012384F85D3011
:102DA80010BD80F85C3001F0D7F8B9E74FF48051D6
:102DB800C3E701232363CFE7012070472DE9F843D8
:102DC8009946089D90F85C30012B02D10220BDE89D
:102DD800F88304460F461646012380F85C30FDF759
:102DE800DFFE804694F85D30DBB26268012B13D0B9
:102DF800B2F5827F08D00220012384F85D300023D9
:102E080084F85C30BDE8F883A268002A40F02C8181
:102E1800042B01D00220EFE7002F00F02781002EBD
:102E280000F02681B9F1000F00F0248194F85D309C
:102E3800DBB2042B02D0052384F85D30002323661F
:102E48002664A4F84690A4F84490A763A4F83E909A
:102E5800A4F83C90E3642365E368B3F5E06F04D815
:102E6800B4F846309BB2012B23D92268536823F467
:102E78008053536023681A6812F0400F03D11A6810
:102E880042F040021A60E368B3F5E06F56D9636810
:102E98001BB1E38F9BB2012B08D1236837F8022BB3
:102EA800DA60E38F9BB2013B9BB2E3874FF00109E5
:102EB80024E02268536843F480535360DAE7B4F897
:102EC80046309BB283B123689A6812F0010F0BD089
:102ED800DB6826F8023BB4F846309BB2013B9BB254
:102EE800A4F846304FF00109B5F1FF3F06D0FDF7D1
:102EF80057FEA0EB0800854240F2BE80E38F9BB2EC
:102F08002BB9B4F846309BB2002B00F0A180B9F180
:102F1800000FD4D0E38F9BB2002BD0D023689A68DF
:102F280012F0020FCBD037F8022BDA60E38F9BB296
:102F3800013B9BB2E3874FF00009C0E763681BB110
:102F4800E38F9BB2012B0CD1E38F9BB2012B0BD9E2
:102F5800236837F8022BDA60E38F9BB2023B9BB2FF
:102F6800E3874FF001093BE023683A781A73E38F4F
:102F78009BB2013B9BB2E3870137F2E73A781A73B9
:102F8800E38F9BB2013B9BB2E38701374FF0000907
:102F9800B4F846309BB2D3B123689A6812F0010F97
:102FA80015D0B4F8462092B2012A44D9DB6826F835
:102FB800023BB4F846309BB2023B9BB2A4F84630C1
:102FC800B4F846309BB2012B2DD94FF00109B5F169
:102FD800FF3F05D0FDF7E4FDA0EB080085424DD981
:102FE800E38F9BB223B9B4F846309BB2002B2FD0A5
:102FF800B9F1000FCCD0E38F9BB2002BC8D0236867
:103008009A6812F0020FC3D0E28F92B2012AB5D9A2
:1030180037F8022BDA60E38F9BB2023B9BB2E3875F
:103028004FF00009B4E72268536843F480535360B3
:103038004FF00109CBE71B7B3370B4F846309BB2E5
:10304800013B9BB2A4F8463001364FF00109BEE7B8
:10305800424629462046FFF7E2FD08B120232366B1
:10306800236E6BB90020C7E60220C5E60120C3E63F
:103078000120C1E60120BFE60320BDE60320BBE630
:103088000120B9E62DE9F04182B004460E4690468B
:103098001D464368B3F5827F07D094F85C30012B56
:1030A8000FD1022002B0BDE8F0818368002BF4D173
:1030B800042380F85D30009513460A46FFF77EFE2C
:1030C800F0E7012384F85C30FDF76AFD074694F8C1
:1030D8005D30DBB2012B07D00220012384F85D307C
:1030E800002384F85C30DDE7002E7FD0B8F1000FB4
:1030F8007ED0042384F85D30002323662664A4F878
:103108004480A4F84680A363A387E387E364236528
:10311800E368B3F5E06F16D92268536823F4805347
:103128005360A368B3F5004F13D023681A6812F0F0
:10313800400F03D11A6842F040021A60E368B3F501
:10314800E06F16D932E02268536843F48053536025
:10315800E7E72268136823F480431360E5E7002D4E
:1031680048D0B5F1FF3F04D0FDF71AFDC01B8542DA
:1031780042D9B4F846309BB263B323689A6812F018
:10318800010FECD01B7B06F8013BB4F846309BB22C
:10319800013B9BB2A4F84630EBE77DB3B5F1FF3FA6
:1031A80004D0FDF7FDFCC01B854229D9B4F8463090
:1031B8009BB27BB123689A6812F0010FEDD0DB68EF
:1031C80026F8023BB4F846309BB2013B9BB2A4F808
:1031D8004630EBE73A4629462046FFF754FD08B14A
:1031E80020232366236E6BB9002076E7012074E75D
:1031F800012072E7032070E703206EE703206CE7E5
:1032080003206AE7012068E710B4036A046A24F01F
:1032180001040462846924F0F00444EA021223F0F1
:103228000A030B43826103625DF8044B704710B4D4
:10323800036A23F0100303628469036A24F4704468
:1032480044EA023223F0A00343EA011382610362D5
:103258005DF8044B7047836823F0700341F0070161
:103268000B438360704700000368234A90423DD0B7
:10327800B0F1804F3AD0A2F59432904236D01E4A2F
:10328800904212D0B0F1804F0FD0A2F59432904204
:103298000BD002F59E32904207D002F58062904230
:1032A80003D002F58062904203D123F44073CA68C8
:1032B800134323F080034A69134303608B68C36296
:1032C8000B6883620C4B98420BD003F5A0539842CD
:1032D80007D003F58063984203D003F580639842D2
:1032E80001D10B69036301234361704723F0700325
:1032F8004A681343C3E700BF002C0140A8B110B5CA
:10330800044690F83D305BB1022384F83D30211D1E
:103318002068FFF7A9FF012384F83D30002010BD85
:1033280080F83C3000F040FEEEE70120704710B412
:10333800846824F47F4442EA032319430C438460DD
:103348005DF8044B7047000090F83C30012B00F00A
:10335800828010B50446012380F83C30022380F8AF
:103368003D30026890683D4B034093600B68402BEA
:103378005DD010D9702B40D01FD8502B4DD0602B6A
:1033880034D1CA6849682068FFF751FF6021206876
:10339800FFF761FF2AE0102B53D008D9202B55D016
:1033A800302B23D130212068FFF755FF1EE0EBB901
:1033B80000212068FFF74FFF18E0B3F5805F0ED0BB
:1033C800B3F5005F12D1CB684A6889682068FFF7B7
:1033D800AEFF2268936843F48043936006E0226856
:1033E800936823F4803323F007039360012384F860
:1033F8003D30002084F83C0010BDCB684A688968DD
:103408002068FFF794FF2268936823F4803323F041
:10341800770343F077039360E8E7CA684968206850
:10342800FFF7F2FE50212068FFF715FFDEE7CA68B4
:1034380049682068FFF7E8FE40212068FFF70BFF86
:10344800D4E710212068FFF706FFCFE72021206886
:10345800FFF701FFCAE70220704700BF8800FEFFA0
:1034680090F83C30012B1FD030B4012380F83C3059
:1034780004686368A2680D4DAC4210D023F0700355
:103488000D682B4322F0800289680A436360036851
:103498009A60002380F83C30184630BC704723F40B
:1034A80070034D682B43E9E702207047002C014068
:1034B80070B588B0204B5A6942F480025A615A6943
:1034C80002F480020092009A5A6942F400325A616A
:1034D8005A6902F400320192019A5A6942F4802230
:1034E8005A615B6903F480230293029B134E002206
:1034F800C3213046FEF7F8FD00224FF4E0614FF09B
:103508009040FEF7F1FDC3230393012504950024A1
:103518000594069403A93046FEF71CFD4FF4E063BA
:10352800039304950594069403A94FF09040FEF781
:1035380011FD08B070BD00BF001002400004004833
:10354800FEE7000000B597B041484FF0A043036084
:103558004FF4003343600023836001220261C3619A
:1035680043620363C262C36002624363042242612E
:1035780083618363FDF720FC002846D116A9002348
:1035880041F80C3D3248FEF70BFA002842D10123DE
:103598000D930E93002310930F93119312930DA97B
:1035A8002B48FDF72DFE002839D101220192029205
:1035B800002304930421079103930C930B9209931E
:1035C80008930A930693059369442148FDF7DAFFA7
:1035D80050BB02230193029301A91D48FDF7D2FFB6
:1035E80038BB03230193029301A91948FDF7CAFFC9
:1035F80020BB0423019302930DEB03011448FDF74C
:10360800C1FF00BB17B05DF804FB4FF4CA71114845
:10361800FFF796FF4FF4CE710E48FFF791FF40F287
:10362800A9110C48FFF78CFF4FF4DE710948FFF72A
:1036380087FF40F2C5110748FFF782FF4FF4E77193
:103648000448FFF77DFF40F2D7110248FFF778FFE3
:103658003C030020085C000800B593B039483A4B99
:1036680003604FF40033436000238360012202614A
:10367800C36143620363C262C3600262436304229C
:10368800426183618363FDF797FB00283CD10123E6
:103698000C930D9300230F930E93109311930CA981
:1036A8002848FDF7ADFD002833D101220092019290
:1036B800002303930421069102930B930A92089323
:1036C800079309930593049369461E48FDF75AFF2B
:1036D80020BB02230093019369461A48FDF752FF65
:1036E80008BB03230093019369461648FDF74AFF78
:1036F800F0B904230093019369461248FDF742FF8D
:10370800D8B913B05DF804FB40F2F5110F48FFF784
:1037180017FF40F202210D48FFF712FF40F2152172
:103728000A48FFF70DFF40F21E210848FFF708FF7F
:1037380040F227210548FFF703FF4FF40C710348B7
:10374800FFF7FEFE9C02002000010050085C000804
:1037580000B589B01848194B0360002343608360A3
:10376800C360036143618361FFF7C8FDA0B908A97D
:103778004FF4805341F8103D0F48FFF7E5FD80B93D
:10378800002301930293039301A90B48FFF768FEF6
:1037980060B909B05DF804FB40F276210848FFF7EC
:1037A800CFFE4FF41F710648FFF7CAFE4FF4217190
:1037B8000348FFF7C5FE00BF90030020002C01401E
:1037C800085C000808B50C480C4B036010234360E4
:1037D80000238360C360036143618361C361036243
:1037E80043628362C362FEF779F900B908BD40F20B
:1037F80047210348FFF7A4FEF802002000640040B8
:10380800085C000808B51148114B03604FF4827337
:103818004360002383604FF47062C26003614361B8
:103828004FF400728261C3610362436283620722BC
:10383800C262036308234363FFF768FA00B908BD4F
:1038480040F261210348FFF77BFE00BFD803002048
:1038580000300140085C000800B589B017484FF0F7
:1038680080430360002343608360C3600361836116
:10387800FFF744FD98B908A94FF4805341F8103D6B
:103888000E48FFF761FD78B900230193039301A95E
:103898000A48FFF7E5FD60B909B05DF804FB4FF48D
:1038A80026710748FFF74CFE40F29E210448FFF7B7
:1038B80047FE40F2A5210248FFF742FE3C040020E3
:1038C800085C000800B597B002230C9301221092FF
:1038D800102211921393002314934FF4E0131593BD
:1038E8000CA8FEF707FC48BB0F2307930223089395
:1038F800002309930A930B93012107A8FEF738FFC9
:1039080008BB4FF4805301930023069301A8FFF7E7
:103918001FF8E8B9FFF716F8104BA3FB0030800931
:10392800FEF7ECFA0420FEF7FFFA002211464FF0EA
:10393800FF30FEF7B1FA17B05DF804FB4FF4AB7136
:103948000748FFF7FDFD4FF4B2710548FFF7F8FD92
:1039580040F26B110248FFF7F3FD00BFD34D621030
:10396800085C000880B5FDF7FDF8FFF7ABFFFFF72F
:103978009FFDFFF7E7FDFFF76FFEFFF7E9FEFFF793
:1039880021FFFFF73FFFFFF767FF174C01221146A2
:103998002046FEF7A9FB012202212046FEF7A4FBE0
:1039A800012280212046FEF79FFB0122402120466C
:1039B800FEF79AFB41E0A40C6FEA84446FEA944452
:1039C8000A4B1C6276E1A40C6FEA84446FEA9444C3
:1039D800064BDC6295E1A40C6FEA84446FEA9444D8
:1039E800024B9C63B4E100BF00040048F8010020CA
:1039F800002CC0F2E981A40CDF4B5C64DE4C606CE7
:103A0800FCF746FD0022DD4BFCF7A8FDFCF7B8FFEC
:103A1800E0644FF4FA70FDF7C9F86421A06AFEF774
:103A28001DF96421606BFEF719F96421206CFEF71B
:103A380015F96421E06CFEF711F9D14C2046FDF729
:103A4800C9FA64212046FDF767FB01212046FDF7EE
:103A5800C1FB07EE900AF8EE677AF0EE088A67EE87
:103A6800A87A9FEDC88A87EE887AC34D85ED007ADB
:103A780002212046FDF7AEFB07EE900AF8EE677AC2
:103A880067EEA87A87EE887A85ED017A03212046C9
:103A9800FDF7A0FB07EE900AF8EE677A67EEA87AC2
:103AA80087EE887A85ED027A04212046FDF792FB9D
:103AB80007EE900AF8EE677A67EEA87A87EE887ABA
:103AC80085ED037A2046FDF7E9FAAF4C2046FDF76D
:103AD80081FA64212046FDF71FFB01212046FDF7EE
:103AE80079FB07EE900AF8EE677A67EEA87A87EE18
:103AF800887A85ED047A02212046FDF76BFB07EEF4
:103B0800900AF8EE677A67EEA87A87EE887A85EDEC
:103B1800057A03212046FDF75DFB07EE900AF8EED3
:103B2800677A67EEA87A87EE887A85ED067A0421A7
:103B38002046FDF74FFB07EE900AF8EE677A67EE2E
:103B4800A88AC8EE887AC5ED077A2046FDF7A6FA56
:103B58008E4C002201212046FEF7C6FA01220221DE
:103B68002046FEF7C1FA012280212046FEF7BCFA62
:103B7800012240212046FEF7B7FA0520FDF716F886
:103B8800834F844E6423042239463046FFF77AFA7D
:103B98000520FDF70BF8012211462046FEF7A4FA8E
:103BA800002202212046FEF79FFA012280212046AA
:103BB800FEF79AFA012240212046FEF795FA0520E1
:103BC800FCF7F4FF6423042273493046FFF75AFADE
:103BD8000520FCF7EBFF012211462046FEF784FA88
:103BE800012202212046FEF77FFA0022802120468A
:103BF800FEF77AFA012240212046FEF775FA0520E1
:103C0800FCF7D4FF6423042264493046FFF73AFAEC
:103C18000520FCF7CBFF012211462046FEF764FA87
:103C2800012202212046FEF75FFA01228021204668
:103C3800FEF75AFA002240212046FEF755FA0520E1
:103C4800FCF7B4FF6423042255493046FFF71AFAFB
:103C58000520FCF7ABFF012211462046FEF744FA87
:103C6800012202212046FEF73FFA01228021204648
:103C7800FEF73AFA012240212046FEF735FA3B8842
:103C88007C8844EA03442609C6F30A00FCF700FCD2
:103C98000022444BFCF762FCFCF772FE686216F4E3
:103CA800006F01D040426862002CFFF684AEA40C7D
:103CB800314B1C62304D286AFCF7EAFB00222F4B7F
:103CC800FCF74CFCFCF75CFEA862334B1A885C8856
:103CD80044EA02442609C6F30A00FCF7D9FB00228D
:103CE800304BFCF73BFCFCF74BFE286316F4006FE7
:103CF80001D040422863002CFFF665AEA40C1E4B91
:103D0800DC621D4DE86AFCF7C3FB00221B4BFCF785
:103D180025FCFCF735FE6863204B1A885C8844EA6A
:103D280002442609C6F30A00FCF7B2FB00221D4B29
:103D3800FCF714FCFCF724FEE86316F4006F01D0CE
:103D48004042E863002CFFF646AEA40C0A4B9C6385
:103D5800094DA86BFCF79CFB0022084BFCF7FEFB07
:103D6800FCF70EFE28640E4B1A885C8844EA02446D
:103D78002609C6F30A0017E0F80100200000D0BFAA
:103D88003C03002000F07F459C020020000400480E
:103D98008C020020D803002094020020D0030020C9
:103DA800F00200200000B03FFCF772FB00220A4B33
:103DB800FCF7D4FBFCF7E4FDA86416F4006F3FF4AD
:103DC80017AE4042A86413E6A40C6FEA84446FEA75
:103DD8009444024B5C6411E60000B03FF8010020F7
:103DE80000B583B0214B9A6942F001029A619A6941
:103DF80002F001020092009ADA6942F08052DA6118
:103E0800DB6903F080530193019B0320FEF732F82E
:103E1800002211466FF00B00FEF73EF80022114613
:103E28006FF00A00FEF738F8002211466FF009001B
:103E3800FEF732F8002211466FF00400FEF72CF866
:103E4800002211466FF00300FEF726F80022114603
:103E58006FF00100FEF720F8002211464FF0FF3006
:103E6800FEF71AF803B05DF804FB00BF001002402B
:103E780000B589B00368B3F1A04F05D01F4A93423B
:103E88001FD009B05DF804FB1D4A136801331360A5
:103E9800012B0BD00F2303930323049300230593D3
:103EA80003A94FF09040FEF755F8EAE7154B5A6919
:103EB80042F080525A615B6903F080530193019B81
:103EC800E8E70F4A136801331360012B0BD0F02386
:103ED8000393032304930023059303A94FF0904011
:103EE800FEF738F8CDE7074B5A6942F080525A611D
:103EF8005B6903F080530293029BE8E700010050DE
:103F080078020020001002400268124B9A4200D04A
:103F1800704700B587B003F5D633DA6942F000720E
:103F2800DA61DB6903F000730093009B4FF4C05320
:103F38000193022302930023039303230493092389
:103F4800059301A94FF09040FEF704F807B05DF81B
:103F580004FB00BF006400400268114B9A4200D085
:103F6800704700B587B003F560439A6942F4805200
:103F78009A619B6903F480530093009B3823019353
:103F88000223029300230393032304930523059339
:103F980001A90448FDF7DEFF07B05DF804FB00BF88
:103FA800003001400004004882B003680F4A934281
:103FB80004D0B3F1804F0CD002B070470C4B9A6913
:103FC80042F400629A619B6903F400630093009BCA
:103FD800F2E703F50433DA6942F00102DA61DB69DA
:103FE80003F001030193019BE6E700BF002C0140A9
:103FF800001002407047FEE7FEE7FEE7FEE7704765
:104008007047704708B5FCF7BFFDFDF79EFF08BD78
:104018001549D1F8883043F47003C1F88830134B40
:104028001A6842F001021A605868114A02405A6040
:104038001A6822F0847222F480321A601A6822F414
:1040480080221A605A6822F4FE025A60DA6A22F064
:104058000F02DA62186B074A02401A6300229A605C
:104068004FF000638B60704700ED00E000100240E5
:104078000CC07FF8CCFC00FFDFF834D0002103E04F
:104088000C4B5B58435004310B480C4B42189A4276
:10409800F6D30B4A02E0002342F8043B094B9A424C
:1040A800F9D3FFF7B5FF00F011F8FFF75BFCFEE767
:1040B80000300020485E000800000020DC010020DD
:1040C800DC01002080040020FEE7000070B50D4EE2
:1040D8000D4CA41BA4100025A54209D10B4E0C4C75
:1040E80001F066FDA41BA4100025A54205D170BDF2
:1040F80056F8253098470135EEE756F825309847A9
:104108000135F2E7405E0008405E0008405E0008A6
:10411800445E000802440346934200D1704703F806
:10412800011BF9E72DE9FF4755EC104B0D9FDDF812
:1041380030A0002D0E4691461946B8BF22462B46A0
:1041480027F02007BBBF05F100431D4600232D23A0
:10415800B8BF1446462F0B7004D0452F00D1013646
:10416800022100E0032103AB019302AB0093324626
:10417800534645EC104B00F0AFFB472F804602D169
:1041880019F0010F26D0462F08EB060911D198F82F
:104198000030302B0AD10022002320462946FCF7A4
:1041A80075FC18B9C6F10106CAF80060DAF80030E3
:1041B80099440022002320462946FCF767FC38B9B9
:1041C8003022039B994505D9591C03911A70F8E7C9
:1041D800CDF80C90039B0E9AA3EB0803404613609E
:1041E80004B0BDE8F087F7B503460029B8BF4942D7
:1041F80003F8022BB4BF2D222B220929427020DD9F
:104208000DF1070217460A2691FBF6F506FB151174
:104218003031092D02F8011C02F1FF34294609DC6E
:104228003031023A04F8011CBA421C4604D3201A61
:1042380003B0F0BD2246E7E712F8011B03F8011BA3
:10424800F2E730221C46114404F8022B5970EEE7BD
:104258002DE9F04F8DB00C46DDF8588016461F4604
:10426800054601F007F9036804931846FCF7B0FB0C
:1042780000230A93D8F800300590073323F007038A
:1042880003F1080294F818A0D4F800B0C8F8002088
:10429800D3E90023C4E91223D4E9128929F00043A1
:1042A8000793CDF818804FF0FF32A54BDDE90601E2
:1042B800FCF71EFC002840F0FB814FF0FF32A04BBA
:1042C800DDE90601FCF7F6FB002840F0F181002249
:1042D800002340464946FCF7E3FB10B12D2384F840
:1042E8004330984B984ABAF1470F8CBF904698468E
:1042F80003232BF00402236122604FF0000900978A
:1043080033460BAA2146284600F0E2F9013040F076
:1043180093804FF0FF300DB0BDE8F08F61684B1C03
:104328004BF480623FD106236360002303930AABFA
:10433800029309AB009349EC108B0DF12303226023
:10434800CDF804A061682846FFF7ECFE0AF0DF0309
:10435800472B804609D1099BD81C02DB626893422F
:1043680057DDAAF1020A5FFA8AFABAF1650F0999CC
:1043780034D80139524604F150000991FFF733FF50
:104388000A9A8318012A8146236102DC2268D10730
:1043980001D5013323619DF82330002BAFD02D23A5
:1043A80084F84330ABE7BAF1670F02D0BAF1470F90
:1043B800BBD189B1002303930AAB029309AB0093E5
:1043C80049EC108B2260CDF804A00DF12303284698
:1043D800FFF7A8FE8046BEE70123A5E7BAF1660FFE
:1043E80019D1002963680CDD216113B92268D2074D
:1043F80002D501330B442361099BA3654FF00009E3
:10440800C9E713B92268D00701D50233F3E70123BE
:10441800F1E74FF0670A099B0A9A934205DB226885
:104428002361D107E8D50133E5E7002BD4BFC3F1F9
:10443800020301231344DEE723685A0507D42369DE
:10444800424631462846B84701302BD161E7BAF1D8
:10445800650F40F2E28000220023D4E91201FCF744
:1044680015FB00283CD00123384A31462846B84776
:1044780001303FF44EAF0A9B099A9A4202DB236847
:10448800D8070FD5059B049A31462846B84701300E
:104498003FF43FAF4FF0000804F11A090A9B013BB3
:1044A800984512DB23689B0709D54FF0000804F1F3
:1044B8001909E3680B9A9B1A9845C0F2EE80E068E8
:1044C8000B9B9842B8BF184625E701234A46314658
:1044D8002846B84701303FF41CAF08F10108DDE772
:1044E800099B002B34DC0123184A31462846B8477B
:1044F80001303FF40EAF099B23B90A9B13B9236817
:10450800D907CFD5059B049A31462846B8470130CC
:104518003FF4FFAE4FF0000904F11A0A099B5B4211
:10452800994501DB0A9B8BE7012352463146284611
:10453800B84701303FF4EDAE09F10109EEE700BFDD
:10454800FFFFEF7F185C00081C5C0008285C00086F
:104558000A9AA36D9A42A8BF1A46002A914638DCE7
:1045680004F11A034FF0000B29EAE9790693D4F80D
:1045780058A0AAEB09039B4533DB0A9B099A9A4288
:104588003ADB2368DA0737D40A9B0999A3EB0A02B6
:10459800A3EB01099145A8BF9146B9F1000F33DC9F
:1045A8004FF0000829EAE97904F11A0A099A0A9BE6
:1045B8009B1AA3EB09039845BFF674AF0123524633
:1045C80031462846B84701303FF4A3AE08F1010848
:1045D800ECE71346314642462846B8470130BFD17A
:1045E80097E60123069A31462846B84701303FF43A
:1045F80090AE0BF1010BBAE7059B049A31462846A9
:10460800B8470130C0D184E64B4608EB0A02314670
:104618002846B8470130C3D17BE60A9A012A01DC53
:10462800DB0737D50123424631462846B8470130D3
:104638003FF46FAE059B049A31462846B8470130CF
:104648003FF467AE00220023D4E91201FCF71EFAFA
:1046580058B14FF0000804F11A0A0A9B013B98452B
:104668000DDB4B4604F15002EBE60A9B08F1010210
:10467800013B31462846B8470130F2D149E60123CB
:10468800524631462846B84701303FF442AE08F159
:104698000108E2E701234246EBE701234A46314697
:1046A8002846B84701303FF434AE08F1010800E766
:1046B80042464B4640464946FCF71AFA00283FF462
:1046C8002DAE014B014A0EE6205C0008245C000870
:1046D8002DE9F04791461F468A680B69DDF820806E
:1046E8009342B8BF1346C9F8003091F843200646F4
:1046F8000C4612B10133C9F800302368990642BF4D
:10470800D9F800300233C9F80030256815F00605DD
:1047180007D104F1190AE368D9F800209B1A9D42D1
:1047280029DB94F843302268003318BF012392062E
:104738002ED404F1430239463046C047013021D017
:104748002368E568D9F8002003F00603042B08BFA6
:10475800AD1AA36822690CBF25EAE57500259342C6
:10476800C4BF9B1AED184FF000091A344D451BD1F0
:104778000020BDE8F0870123524639463046C0473D
:10478800013003D14FF0FF30BDE8F0870135C2E7B3
:10479800E1185A1C302081F84300224494F845104F
:1047A80082F843100233C4E70123224639463046D3
:1047B800C0470130E6D009F10109D7E72DE9F74FE5
:1047C80003690C699C42804600F38280013C01F138
:1047D80014074FEA840E00F1140657F8245056F8CF
:1047E800240006EB0E03013507EB0E090193B0FB1D
:1047F800F5F595B34FF0000A3846B446D34650F85D
:10480800042B93B205FB03A34FEA134A9BB2ABEB0D
:104818000303120CBCF800B005FB02A213FA8BF3D9
:104828004FEA124A1FFA82FBDCF80020CBEB124257
:1048380002EB23429BB243EA024381454FEA224BF3
:104848004CF8043BDBD256F80E3033B9019B043BDD
:104858009E421A4630D3C8F81040404601F035F859
:10486800002825DB013530464FF0000E57F8042BA1
:10487800D0F800C093B2AEEB0303120C13FA8CF31A
:10488800C2EB1C4202EB23429BB243EA0243B94506
:104898004FEA224E40F8043BE8D256F8242006EBB3
:1048A80084032AB9043B9E421A460BD3C8F8104029
:1048B800284603B0BDE8F08F1268043B002ACAD12D
:1048C800013CC5E71268043B002AEFD1013CEAE746
:1048D8000020EEE7000000002DE9F04F57EC106BC8
:1048E80097B0CDE90067466A079104460A920F938C
:1048F800209D3EB9102000F0CBFD606246608660C6
:104908000660C660636A196851B15A684A60012333
:1049180093408B60204600F002FE636A00221A6012
:10492800019B002BBFBF01232B60019B23F0004399
:10493800B2BF019300232B60DDF80480A84B33EA53
:1049480008031BD10F9A42F20F731360009B23B91F
:10495800C8F31300002800F07885219B53B9A14BB8
:1049680021E0A14B02930833219A1360029817B0F3
:10497800BDE8F08F9B4B02930333F5E7DDE9006751
:104988000022002330463946FCF780F8814660B1A2
:104998000F9A01231360219B002B00F05385934B42
:1049A800219A1360013B0293E0E714AA15A947EC8A
:1049B800106B204601F001F8C8F30A558246002D15
:1049C8007ED0C7F3130343F07F51304641F44011C2
:1049D800A5F2FF35CDF848900022854BFBF70AFC7D
:1049E80079A3D3E90023FBF7B9FD79A3D3E9002321
:1049F800FBF702FC064628460F46FBF749FD76A35F
:104A0800D3E90023FBF7AAFD02460B463046394698
:104A1800FBF7F2FB06460F46FBF7B2FF0022834680
:104A2800002330463946FCF73BF858B15846FBF7A7
:104A38002FFD02460B4630463946FCF727F808B9E1
:104A48000BF1FF3BBBF1160F59D86A4901EBCB01BB
:104A5800DDE90023D1E90001FCF740F8002850D037
:104A68000BF1FF3B00230E93149B5D1B6B1E0693FB
:104A780045BFC5F101030593002300234CBF0693EE
:104A88000593BBF1000F3EDB069BCDF82CB05B44D1
:104A9800069300230893079B092B00F2AF80052B90
:104AA800C4BF043B0793079BA3F10203CCBF0026B6
:104AB8000126032B00F2AE80DFE803F082842F7713
:104AC800159B149D1D4405F23243202B11DD009ADD
:104AD80005F21240C3F1400322FA00F008FA03F38A
:104AE8001843FBF7C5FC0123A1F1F871013D1293AE
:104AF80072E7C3F12000009B03FA00F0F1E70123FD
:104B0800B1E70E90B0E7059BA3EB0B030593CBF140
:104B18000003089300230B93BDE7012309930A9B25
:104B2800002B7ADD04930393656A00226A600421EE
:104B380001F114029A4275D96968204600F0BBFC5D
:104B4800636A28601B680293039B0E2B00F2E580C2
:104B5800002E00F0E2809DED007BBBF1000F8DED93
:104B68000C7B74DD234A0BF00F034FEA2B1602EB84
:104B7800C303F006D3E9008959D51F4B51EC170B35
:104B8800D3E90823FBF714FECDE9000106F00F0670
:104B98000325194F002E4CD142464B46DDE9000152
:104BA800FBF706FECDE900016AE0012309930A9BA1
:104BB8005B4404930133012B0393B8BF0123B3E78C
:104BC8000023ABE70023F1E761436F63A787D23F78
:104BD800B3C8608B288AC63FFB799F501344D33FE4
:104BE8000000F07F335C00082A5C0008295C00089C
:104BF8000000F83F605C0008385C000801260023CC
:104C0800079309964FF0FF3304930393002212236E
:104C18000A9289E701230993F4E701230493039394
:104C28001A46F5E76A6801326A60490080E702259A
:104C3800AFE7F10708D540464946D7E90023FBF717
:104C48008DFC01358046894676100837A2E700F0CA
:104C58009D80CBF100069F4B9F4F06F00F0203EBA0
:104C6800C203D3E90023DDE90C01FBF777FCCDE9AA
:104C78000001361100230225002E7CD1002B91D192
:104C88000E9B002B00F08480DDE900890022934B05
:104C980040464946FBF704FF002879D0039B002BC8
:104CA80076D0049B002B34DD00228D4B40464946CC
:104CB800FBF754FCCDE90001049E0BF1FF370135E9
:104CC8002846FBF7E5FBDDE90023FBF747FC00225C
:104CD800844BFBF791FA8046A1F15079002E5AD106
:104CE8000022814BDDE90001FBF784FA42464B467E
:104CF800CDE90001FBF7F2FE002840F09B82424616
:104D080009F10043DDE90001FBF7CAFE002840F085
:104D18008F82DDE90C23CDE90023159B002BC0F21F
:104D28005081BBF10E0F00F34C816A4B03EBCB03B0
:104D3800D3E900890A9B002B80F2DA80039B002BC1
:104D480000F3D68040F073820022674B4046494604
:104D5800FBF704FCDDE90023FBF7B6FE039E3746AC
:104D6800002840F04A82029B029A5D1C312313708E
:104D78000BF1010B45E2F20705D5D7E90023FBF754
:104D8800EDFB013501237610083775E7022577E733
:104D98005F46039E94E7029A4E4B32441392099A57
:104DA800711E002A48D003EBC103D3E90023002079
:104DB8004E49FBF7FDFC42464B46FBF71BFA029DAA
:104DC80080468946DDE90001FBF7DAFD0646FBF778
:104DD8005FFB02460B46DDE90001FBF70BFA3036B4
:104DE80005F8016B42464B46CDE90001FBF758FE3A
:104DF800002865D1DDE9002300203849FBF7FAF9DE
:104E080042464B46FBF74CFE002840F0BA80139B05
:104E18009D423FF47EAF0022314B40464946FBF7A6
:104E28009DFB0022804689462D4BDDE90001FBF7FA
:104E380095FBCDE90001C5E703EBC10142464B46AE
:104E4800D1E90001FBF78AFBCDE91001029DDDE9FC
:104E58000001FBF795FD0646FBF71AFB30360246C4
:104E68000B46DDE90001FBF7C5F905F8016B139B5B
:104E7800AB42804689464FF0000225D11B4BDDE945
:104E88001001FBF7B9F902460B4640464946FBF7C5
:104E980025FE002875D1DDE9102300201349FBF712
:104EA800A9F902460B4640464946FBF7F9FD00289A
:104EB8003FF42FAF15F8013C302B05F1FF3201D03C
:104EC800BB464DE01546F5E7054BFBF747FBCDE93B
:104ED8000001BCE7605C0008385C00080000F03F97
:104EE8000000244000001C40000014400000E03F87
:104EF800DDE90067029D42464B4630463946FBF7DE
:104F080057FCFBF73DFD0090FBF7C2FA42464B46C3
:104F1800FBF724FB02460B4630463946FBF76AF995
:104F2800009E039F303605F8016B029EAE1BB74208
:104F380002460B4638D1FBF75FF906460F46024694
:104F48000B4640464946FBF7ABFDC8B932463B46DF
:104F580040464946FBF79AFD10B1009BDB070FD48A
:104F68005146204600F0DBFA00230F9A2B700BF114
:104F780001031360219B002B3FF4F8AC1D60F5E49E
:104F88005F4615F8012C392A05F1FF3306D1029A3C
:104F98009A4207D130231370013713461A78013229
:104FA8001A708DE71D46ECE70022A44BFBF7D6FAF2
:104FB8000022002306460F46FBF768FD00289AD01A
:104FC800CEE7099A002A00F0CD80079A012A00F35B
:104FD800AF80129A002A00F0A78003F23343089E9C
:104FE800059D059A1A440592069A01211A442046FD
:104FF800069200F034FB0746002D0CDD069B002BC3
:1050080009DDAB42059AA8BF2B46D21A0592069A2B
:10501800ED1AD31A0693089BF3B1099B002B00F0F5
:10502800A580002E10DD39463246204600F0AEFB42
:10503800524601460746204600F01AFB5146804674
:10504800204600F06CFAC246089B9A1B04D05146D1
:10505800204600F09BFB82460121204600F0FFFA23
:105068000B9B002B064640F383801A4601462046D8
:1050780000F08CFB079B012B06467CDD4FF00008F7
:10508800336906EB8303186900F09BFAC0F120002E
:10509800069B184410F01F0000F09680C0F1200312
:1050A800042B40F38780059BC0F11C000344059343
:1050B800069B054403440693059B002B05DD5146DA
:1050C8001A46204600F0B0FB8246069B002B05DD01
:1050D80031461A46204600F0A7FB06460E9B002BD9
:1050E80074D03146504600F0F0FB00286EDA0023F9
:1050F80051460A22204600F029FA099B0BF1FF3B92
:105108008246002B00F0A881002339460A22204657
:1051180000F01CFA049B002B074600F3C880079B8D
:10512800022B40F3C48059E0149BC3F1360356E7C1
:10513800039B5E1E089BB342BFBF089B0896F21AEA
:105148000B9BB6BF9B189E1B0B93039BB8BF0026F7
:10515800002BB9BF059B039A059D039BBCBF9D1AF5
:1051680000233EE7089E059D099F45E7089A6EE7DC
:10517800079B012B19DC009BBBB9019BC3F31303ED
:105188009BB9019B23F000431B0D1B0583B1059BB5
:1051980001330593069B013306934FF001080B9BDF
:1051A800002B7FF46DAF012072E74FF00008F6E79F
:1051B8009846F4E780D0059A1C331A440592069A5B
:1051C8001A441D44134676E70346F4E7039B002B75
:1051D80036DC079B022B33DD039B0493049B63B9E6
:1051E80031460522204600F0B1F9014606465046F0
:1051F80000F06BFB00283FF7B6AD0A9B029D6FEAF3
:10520800030B002303933146204600F088F9002F52
:105218003FF4A6AE039B2BB1BB4203D019462046F0
:1052280000F07DF93946204600F079F998E6002625
:105238003746E2E7BB46374695E500BF0000244005
:10524800099B93BB039B0493029D31465046FFF78D
:10525800B5FA00F1300905F8019B029B049AEB1A94
:105268009A4200F3DC80029B012AACBF9B180133F1
:1052780098460023039351460122204600F0D4FAB1
:105288003146824600F021FB002800F38D8003D1CF
:1052980019F0010F40F08880454615F8013C302B85
:1052A80005F1FF32AFD11546F7E7039B0493002DB4
:1052B80005DD39462A46204600F0B6FA0746B8F119
:1052C800000F4CD07968204600F0F5F83A690232B0
:1052D8000546920007F10C010C3000F0E1F80122BC
:1052E8002946204600F0A0FA009BDDF808800397C5
:1052F80003F001030746059331465046FFF75EFA6F
:105308000399054600F13009504600F0DEFA3A46A6
:1053180000903146204600F0F2FAC368024603BB0B
:1053280001460690504600F0D0FA069A0346114608
:105338002046069300F0F3F8069BA3B9079A92B9A2
:10534800059A82B9B9F1390F29D0009B002B01DDEC
:1053580005F1310908F1010588F8009053E738464E
:10536800C2E70123E3E7009A002A04DB25D1079A64
:105378001ABB059A0ABB002BECDD514601222046D8
:1053880000F052FA3146824600F09FFA002803DC0A
:10539800E0D119F0010FDDD0B9F1390FD8D1392397
:1053A80088F8003008F10108454615F8013C392B0A
:1053B80005F1FF323BD0013340E0002B08F1010535
:1053C80005DDB9F1390FEAD009F10109C4E7029BFB
:1053D800049A05F8019CEB1A9342A8463FF44BAF98
:1053E800514600230A22204600F0B0F8039B039997
:1053F800BB4282464FF000034FF00A02204604D118
:1054080000F0A4F80390074676E700F09FF8002321
:1054180003900A223946204600F098F8F3E75146EF
:1054280000230A22204600F091F882460DE7029BED
:10543800934205D1029A0BF1010B31231370E2E676
:105448001546B2E7094BFFF7AEBA219B002B7FF454
:1054580088AA074BFFF7A7BA049B002B3FF7F4AEC7
:10546800079B022B7FF7F0AEB8E600BF285C000868
:105478002A5C0008044B1B68186A044B002808BF04
:105488001846F030704700BF0C0000207000002064
:10549800024B0146186800F0EDBA00BF0C0000206E
:1054A80010B5431E0A44914200D110BD11F8014BBA
:1054B80003F8014FF7E770B5456A04460E463DB953
:1054C8001020FFF7E5FF6062456085600560C560F4
:1054D800656AEB6883B1636ADB6853F82600B8B97C
:1054E800012101FA06F56A1D9200204600F0B4FA7F
:1054F80060B1466085600EE021220421204600F05C
:10550800ABFA636AE860DB68002BE4D1002070BD69
:10551800026843F8262000230361C36070BD70B59C
:10552800446A06460D463CB91020FFF7B1FF706289
:10553800446084600460C4603DB1736A6A68DB6873
:1055480053F82210296043F8225070BD2DE9F0412C
:105558000D691F4606460C4601F1140E0023DEF8BD
:10556800000081B202FB01710F0C000C02FB0070FD
:1055780089B2013301EB00419D424FEA10474EF8D2
:10558800041BECDCD7B1A3689D4212DB616830468E
:105598000131FFF790FF2269023204F10C018046C5
:1055A80092000C30FFF77CFF21463046FFF7B7FF2B
:1055B800444604EB850301355F6125612046BDE85B
:1055C800F081020C12040346B2B90304102013F050
:1055D8007F4F04BF1B02083013F0704F04BF1B013C
:1055E800043013F0404F04BF9B000230002B06DB51
:1055F8005B0003D5013070470020E8E720207047A2
:10560800036813F0070201460BD0DA0723D4980782
:1056180049BF5B089B0801200B605CBF0B60022040
:10562800704798B2A8B91B0C102013F0FF0F04BFE5
:105638001B0A08301A0704BF1B0904309A0704BF65
:105648009B080230DA0702D45B0806D001300B60F1
:1056580070471046E9E7002070472020704710B5D2
:105668000C460121FFF727FF01224461026110BDAA
:105678002DE9F74F14460A6923699A42B8BF0B46C9
:105688008946BCBFA1461C46D9F81070D4F810A0B2
:10569800D9F80830D9F8041007EB0A069E42C8BFAB
:1056A8000131FFF708FF00F1140505EB86082B46CA
:1056B8000022434516D304F1140209F1140102EB48
:1056C8008A0301EB87070193019C944213460CD887
:1056D800002E03DD58F8043D002B54D0066103B0BA
:1056E800BDE8F08F43F8042BE3E7B3F800A00432D9
:1056F800BAF1000F20D0AE4689464FF0000C59F899
:10570800044BBEF800B0A3B20AFB03B34FEA144B34
:10571800DEF8004063444FEA144C0AFB0BC404EB68
:1057280013449BB243EA04434F454FEA144C4EF8E6
:10573800043BE4D8CEF800C032F8029CB9F1000F5F
:105748001FD02B68AE468C464FF0000ABCF80040CC
:10575800BEF802B009FB04B4A2449BB243EA0A4370
:105768004EF8043B5CF8043BBEF800401B0C09FBF8
:10577800034303EB1A4367454FEA134AE6D8CEF8CA
:1057880000300435A0E7013EA2E700002DE9F84308
:10579800154612F0030206460F4607D0013A214C7F
:1057A800002354F82220FFF7D1FE0746AD1035D06C
:1057B800746A3CB91020FFF76BFE70624460846025
:1057C8000460C460D6F82480D8F808404CB940F288
:1057D80071213046FFF743FF0023C8F8080004464C
:1057E80003604FF00008EB070AD5394622463046D9
:1057F800FFF73EFF394681463046FFF790FE4F4699
:105808006D100BD0206838B9224621463046FFF784
:105818002FFF2060C0F800800446E4E73846BDE862
:10582800F88300BF285D00082DE9F0470C464FEAD1
:10583800621A236949680AEB0309A36807461646F2
:1058480009F10105AB4231DB3846FFF734FE00228F
:10585800804600F11403114652452ADB20692AEAE2
:10586800EA7A04F1140116F01F0203EB8A0301EB34
:10587800800E22D0C2F1200C00200E6896403043E2
:1058880043F8040B51F8040B8E4520FA0CF0F4D8B9
:10589800186008B109F10205013D3846C8F81050F2
:1058A8002146FFF73CFE4046BDE8F08701315B002A
:1058B800C8E743F822100132CEE7043B51F8042B25
:1058C80043F8042F8E45F9D8E6E703690A699B1A5D
:1058D80030B50CD19200143014318418114454F8A6
:1058E800045D51F8042D954203D005D301231846D1
:1058F80030BDA042F3D3FAE74FF0FF33F7E72DE9C5
:10590800F0470D460746114628461446FFF7DDFFC7
:10591800061E08D131463846FFF7CDFD0123036145
:105928004661BDE8F087A4BF23462C463846616827
:10593800A6BF1D4600260126FFF7BDFD2B69C660E0
:10594800266905F1140904F1140202EB860709EB34
:10595800830800F114054FF0000C52F804AB59F815
:10596800044B1CFA8AF1A3B2C91A230CC3EB1A43DD
:1059780003EB214389B24FEA234CC84541EA03436C
:10598800964645F8043BE8D8BE4505D355F8043D8E
:105998008BB10661BDE8F0875EF8041B1CFA81F341
:1059A8001A1402EB11429BB243EA02434FEA224C1B
:1059B80045F8043BE8E7013EE8E72DE9F7430E46E2
:1059C800012159EC108B1546FFF775FDC9F30A54F0
:1059D8000746C9F3130334BB0193B8F1000F27D06E
:1059E80002A840F8088DFFF70BFE0099F0B1019A64
:1059F800C0F1200302FA03F30B43C2407B6101921A
:105A0800019BBB61002B14BF022101213961C4B184
:105A1800A4F2334404443460C0F1350028603846A9
:105A280003B0BDE8F08343F48013D5E77961E7E775
:105A380001A8FFF7E5FD019B7B6101213961203059
:105A4800E5E707EB8103A0F2324030601869FFF701
:105A5800B8FDC0EB4110E1E738B502FB01F421467F
:105A680000F008F8054618B122460021FEF752FB5F
:105A7800284638BD70B5CD1C25F0030508350C2D1A
:105A880038BF0C25002D064601DBA94203D90C239B
:105A98003360002070BD00F06DF8234A1468214679
:105AA80091B9224C23681BB9304600F041F82060B8
:105AB8002946304600F03CF8431C26D10C233360BD
:105AC800304600F058F8E4E70B685B1B1AD40B2B40
